{
  "contractName": "Owned",
  "abi": [
    {
      "constant": true,
      "inputs": [],
      "name": "owner",
      "outputs": [
        {
          "name": "",
          "type": "address"
        }
      ],
      "payable": false,
      "stateMutability": "view",
      "type": "function"
    },
    {
      "constant": false,
      "inputs": [],
      "name": "owned",
      "outputs": [],
      "payable": false,
      "stateMutability": "nonpayable",
      "type": "function"
    }
  ],
  "bytecode": "0x608060405234801561001057600080fd5b50610152806100206000396000f3fe60806040526004361061004c576000357c0100000000000000000000000000000000000000000000000000000000900463ffffffff1680638da5cb5b14610051578063df32754b146100a8575b600080fd5b34801561005d57600080fd5b506100666100bf565b604051808273ffffffffffffffffffffffffffffffffffffffff1673ffffffffffffffffffffffffffffffffffffffff16815260200191505060405180910390f35b3480156100b457600080fd5b506100bd6100e4565b005b6000809054906101000a900473ffffffffffffffffffffffffffffffffffffffff1681565b336000806101000a81548173ffffffffffffffffffffffffffffffffffffffff021916908373ffffffffffffffffffffffffffffffffffffffff16021790555056fea165627a7a723058201a00c96bf303bb4e645f859bc74173c7556edcdb5616cca64996811cd614a3a40029",
  "source": "//SPDX-License-Identifier: MIT\npragma solidity ^0.5.0;\n\n\n/// @title Owned\n/// @author Abdullah\ncontract Owned{\n    \n    address payable public  owner;\n    \n     /// @notice Store the contract owner address\n    function owned() public {\n        \n        owner=msg.sender;\n    }\n    \n}\n/// @title Mortal\n/// @author Abdullah\ncontract Mortal is Owned{\n    \n    /// @notice Destroy the smart contract\n    /// @dev Destroy the smart contract using selfdestruct() function that returns all funds to the owner address\n    function kill() public{\n        \n        require(msg.sender==owner);\n        \n        selfdestruct(owner);\n    }\n}\n",
  "sourcePath": "D:\\Work\\6th Semester\\e-Blockchain\\freelancing-master\\contracts\\Owned.sol",
  "compiler": {
    "name": "solc",
    "version": "0.5.0+commit.1d4f565a.Emscripten.clang"
  },
  "schemaVersion": "3.4.16",
  "updatedAt": "2024-02-05T11:17:26.635Z",
  "devdoc": {
    "author": "Abdullah",
    "methods": {},
    "title": "Owned"
  },
  "userdoc": {
    "methods": {
      "owned()": {
        "notice": "Store the contract owner address"
      }
    }
  }
}