{
  "contractName": "Proxy",
  "abi": [
    {
      "constant": false,
      "inputs": [
        {
          "name": "_slave",
          "type": "address"
        }
      ],
      "name": "upgrade",
      "outputs": [],
      "payable": false,
      "stateMutability": "nonpayable",
      "type": "function"
    },
    {
      "constant": false,
      "inputs": [
        {
          "name": "_stopped",
          "type": "bool"
        }
      ],
      "name": "breakCircuit",
      "outputs": [],
      "payable": false,
      "stateMutability": "nonpayable",
      "type": "function"
    },
    {
      "constant": false,
      "inputs": [
        {
          "name": "name",
          "type": "string"
        },
        {
          "name": "id",
          "type": "uint256"
        }
      ],
      "name": "addProject",
      "outputs": [],
      "payable": true,
      "stateMutability": "payable",
      "type": "function"
    },
    {
      "constant": false,
      "inputs": [
        {
          "name": "_id",
          "type": "uint256"
        }
      ],
      "name": "pickProject",
      "outputs": [
        {
          "name": "",
          "type": "uint256"
        }
      ],
      "payable": false,
      "stateMutability": "nonpayable",
      "type": "function"
    },
    {
      "constant": false,
      "inputs": [
        {
          "name": "_id",
          "type": "uint256"
        }
      ],
      "name": "commitProject",
      "outputs": [],
      "payable": false,
      "stateMutability": "nonpayable",
      "type": "function"
    },
    {
      "constant": false,
      "inputs": [
        {
          "name": "_id",
          "type": "uint256"
        }
      ],
      "name": "closeProject",
      "outputs": [],
      "payable": true,
      "stateMutability": "payable",
      "type": "function"
    },
    {
      "constant": true,
      "inputs": [
        {
          "name": "_id",
          "type": "uint256"
        }
      ],
      "name": "returnProject",
      "outputs": [
        {
          "name": "name",
          "type": "string"
        },
        {
          "name": "id",
          "type": "uint256"
        },
        {
          "name": "price",
          "type": "uint256"
        },
        {
          "name": "status",
          "type": "uint256"
        },
        {
          "name": "employer",
          "type": "address"
        },
        {
          "name": "freelancer",
          "type": "address"
        }
      ],
      "payable": false,
      "stateMutability": "view",
      "type": "function"
    }
  ],
  "bytecode": "0x608060405234801561001057600080fd5b50610958806100206000396000f3fe608060405260043610610083576000357c0100000000000000000000000000000000000000000000000000000000900463ffffffff1680630900f0101461008857806329ba314b146100d95780636e52afcc1461015c57806376990034146101ab57806393acc6a5146102da57806393dc12e614610315578063f60f93c414610343575b600080fd5b34801561009457600080fd5b506100d7600480360360208110156100ab57600080fd5b81019080803573ffffffffffffffffffffffffffffffffffffffff169060200190929190505050610380565b005b61015a600480360360408110156100ef57600080fd5b810190808035906020019064010000000081111561010c57600080fd5b82018360208201111561011e57600080fd5b8035906020019184600183028401116401000000008311171561014057600080fd5b9091929391929390803590602001909291905050506103ff565b005b34801561016857600080fd5b506101956004803603602081101561017f57600080fd5b81019080803590602001909291905050506104e0565b6040518082815260200191505060405180910390f35b3480156101b757600080fd5b506101e4600480360360208110156101ce57600080fd5b81019080803590602001909291905050506105b4565b60405180806020018781526020018681526020018581526020018473ffffffffffffffffffffffffffffffffffffffff1673ffffffffffffffffffffffffffffffffffffffff1681526020018373ffffffffffffffffffffffffffffffffffffffff1673ffffffffffffffffffffffffffffffffffffffff168152602001828103825288818151815260200191508051906020019080838360005b8381101561029a57808201518184015260208101905061027f565b50505050905090810190601f1680156102c75780820380516001836020036101000a031916815260200191505b5097505050505050505060405180910390f35b3480156102e657600080fd5b50610313600480360360208110156102fd57600080fd5b8101908080359060200190929190505050610727565b005b6103416004803603602081101561032b57600080fd5b81019080803590602001909291905050506107d2565b005b34801561034f57600080fd5b5061037e6004803603602081101561036657600080fd5b8101908080351515906020019092919050505061087d565b005b600073ffffffffffffffffffffffffffffffffffffffff168173ffffffffffffffffffffffffffffffffffffffff16141515156103bc57600080fd5b806000806101000a81548173ffffffffffffffffffffffffffffffffffffffff021916908373ffffffffffffffffffffffffffffffffffffffff16021790555050565b6000809054906101000a900473ffffffffffffffffffffffffffffffffffffffff1673ffffffffffffffffffffffffffffffffffffffff166329ba314b8484846040518463ffffffff167c010000000000000000000000000000000000000000000000000000000002815260040180806020018381526020018281038252858582818152602001925080828437600081840152601f19601f820116905080830192505050945050505050600060405180830381600087803b1580156104c357600080fd5b505af11580156104d7573d6000803e3d6000fd5b50505050505050565b60008060009054906101000a900473ffffffffffffffffffffffffffffffffffffffff1673ffffffffffffffffffffffffffffffffffffffff16636e52afcc836040518263ffffffff167c010000000000000000000000000000000000000000000000000000000002815260040180828152602001915050602060405180830381600087803b15801561057257600080fd5b505af1158015610586573d6000803e3d6000fd5b505050506040513d602081101561059c57600080fd5b81019080805190602001909291905050509050919050565b606060008060008060008060009054906101000a900473ffffffffffffffffffffffffffffffffffffffff1673ffffffffffffffffffffffffffffffffffffffff166376990034886040518263ffffffff167c01000000000000000000000000000000000000000000000000000000000281526004018082815260200191505060006040518083038186803b15801561064c57600080fd5b505afa158015610660573d6000803e3d6000fd5b505050506040513d6000823e3d601f19601f8201168201806040525060c081101561068a57600080fd5b8101908080516401000000008111156106a257600080fd5b828101905060208101848111156106b857600080fd5b81518560018202830111640100000000821117156106d557600080fd5b5050929190602001805190602001909291908051906020019092919080519060200190929190805190602001909291908051906020019092919050505095509550955095509550955091939550919395565b6000809054906101000a900473ffffffffffffffffffffffffffffffffffffffff1673ffffffffffffffffffffffffffffffffffffffff166393acc6a5826040518263ffffffff167c010000000000000000000000000000000000000000000000000000000002815260040180828152602001915050600060405180830381600087803b1580156107b757600080fd5b505af11580156107cb573d6000803e3d6000fd5b5050505050565b6000809054906101000a900473ffffffffffffffffffffffffffffffffffffffff1673ffffffffffffffffffffffffffffffffffffffff166393dc12e6826040518263ffffffff167c010000000000000000000000000000000000000000000000000000000002815260040180828152602001915050600060405180830381600087803b15801561086257600080fd5b505af1158015610876573d6000803e3d6000fd5b5050505050565b6000809054906101000a900473ffffffffffffffffffffffffffffffffffffffff1673ffffffffffffffffffffffffffffffffffffffff1663f60f93c4826040518263ffffffff167c01000000000000000000000000000000000000000000000000000000000281526004018082151515158152602001915050600060405180830381600087803b15801561091157600080fd5b505af1158015610925573d6000803e3d6000fd5b505050505056fea165627a7a72305820cb75546ae8a762a1f39dc2ac297960ed64dcddccdb6343cc734cabb35efea7480029",
  "source": "pragma solidity ^0.5.0;\n\nimport \"./MasterSlave.sol\";\nimport \"./freelancing.sol\";\n\n\ncontract Proxy is MasterSlave{\n\naddress private slave;\n\n/** @dev upgrade the logic contract by \n* replacing the contract address with th Slave\n* state variable which the user points to\n*/\nfunction upgrade(address _slave) external{\n    require(_slave!= address(0));\n    slave=_slave;\n}\n\nfunction breakCircuit(bool _stopped)  external {\n\n        Freelancing(slave).breakCircuit(_stopped);\n}\nfunction addProject(string  calldata name, uint id)  external  payable{\n        Freelancing(slave).addProject(name, id);\n}\nfunction pickProject(uint _id)  external  returns(uint){\n return Freelancing(slave).pickProject(_id);\n}\nfunction commitProject(uint _id)   external{\n        Freelancing(slave).commitProject(_id);\n}    \nfunction closeProject(uint _id)  external  payable{\n        Freelancing(slave).closeProject(_id);\n}\nfunction returnProject(uint _id) external  view returns(string memory name, uint id, uint price, uint status, address employer, address freelancer) {\n    \nreturn  Freelancing(slave).returnProject(_id);\n}\n\n}",
  "sourcePath": "D:\\Work\\6th Semester\\e-Blockchain\\freelancing-master\\contracts\\Proxy.sol",
  "compiler": {
    "name": "solc",
    "version": "0.5.0+commit.1d4f565a.Emscripten.clang"
  },
  "schemaVersion": "3.4.16",
  "updatedAt": "2024-02-05T11:17:26.638Z",
  "devdoc": {
    "methods": {
      "upgrade(address)": {
        "details": "upgrade the logic contract by  replacing the contract address with th Slave state variable which the user points to"
      }
    }
  },
  "userdoc": {
    "methods": {}
  }
}